{
  "contractName": "Wallet",
  "abi": [
    {
      "inputs": [
        {
          "internalType": "address[]",
          "name": "_approvers",
          "type": "address[]"
        },
        {
          "internalType": "uint256",
          "name": "_quorum",
          "type": "uint256"
        }
      ],
      "stateMutability": "nonpayable",
      "type": "constructor"
    },
    {
      "inputs": [
        {
          "internalType": "address",
          "name": "",
          "type": "address"
        },
        {
          "internalType": "uint256",
          "name": "",
          "type": "uint256"
        }
      ],
      "name": "approvals",
      "outputs": [
        {
          "internalType": "bool",
          "name": "",
          "type": "bool"
        }
      ],
      "stateMutability": "view",
      "type": "function",
      "constant": true
    },
    {
      "inputs": [
        {
          "internalType": "uint256",
          "name": "",
          "type": "uint256"
        }
      ],
      "name": "approvers",
      "outputs": [
        {
          "internalType": "address",
          "name": "",
          "type": "address"
        }
      ],
      "stateMutability": "view",
      "type": "function",
      "constant": true
    },
    {
      "inputs": [],
      "name": "quorum",
      "outputs": [
        {
          "internalType": "uint256",
          "name": "",
          "type": "uint256"
        }
      ],
      "stateMutability": "view",
      "type": "function",
      "constant": true
    },
    {
      "inputs": [
        {
          "internalType": "uint256",
          "name": "",
          "type": "uint256"
        }
      ],
      "name": "transactions",
      "outputs": [
        {
          "internalType": "uint256",
          "name": "id",
          "type": "uint256"
        },
        {
          "internalType": "uint256",
          "name": "amount",
          "type": "uint256"
        },
        {
          "internalType": "address payable",
          "name": "to",
          "type": "address"
        },
        {
          "internalType": "uint256",
          "name": "approvals",
          "type": "uint256"
        },
        {
          "internalType": "bool",
          "name": "sent",
          "type": "bool"
        }
      ],
      "stateMutability": "view",
      "type": "function",
      "constant": true
    },
    {
      "stateMutability": "payable",
      "type": "receive",
      "payable": true
    },
    {
      "inputs": [],
      "name": "getApprovers",
      "outputs": [
        {
          "internalType": "address[]",
          "name": "",
          "type": "address[]"
        }
      ],
      "stateMutability": "view",
      "type": "function",
      "constant": true
    },
    {
      "inputs": [],
      "name": "getTransfers",
      "outputs": [
        {
          "components": [
            {
              "internalType": "uint256",
              "name": "id",
              "type": "uint256"
            },
            {
              "internalType": "uint256",
              "name": "amount",
              "type": "uint256"
            },
            {
              "internalType": "address payable",
              "name": "to",
              "type": "address"
            },
            {
              "internalType": "uint256",
              "name": "approvals",
              "type": "uint256"
            },
            {
              "internalType": "bool",
              "name": "sent",
              "type": "bool"
            }
          ],
          "internalType": "struct Wallet.Transaction[]",
          "name": "",
          "type": "tuple[]"
        }
      ],
      "stateMutability": "view",
      "type": "function",
      "constant": true
    },
    {
      "inputs": [
        {
          "internalType": "uint256",
          "name": "amount",
          "type": "uint256"
        },
        {
          "internalType": "address payable",
          "name": "to",
          "type": "address"
        }
      ],
      "name": "createTransfer",
      "outputs": [],
      "stateMutability": "nonpayable",
      "type": "function"
    },
    {
      "inputs": [
        {
          "internalType": "uint256",
          "name": "id",
          "type": "uint256"
        }
      ],
      "name": "approveTransfer",
      "outputs": [],
      "stateMutability": "nonpayable",
      "type": "function"
    }
  ],
  "bytecode": "0x60806040523480156200001157600080fd5b5060405162001364380380620013648339818101604052620000379190810190620001ef565b81600190805190602001906200004f9291906200005f565b5080600281905550505062000312565b828054828255906000526020600020908101928215620000db579160200282015b82811115620000da5782518260006101000a81548173ffffffffffffffffffffffffffffffffffffffff021916908373ffffffffffffffffffffffffffffffffffffffff1602179055509160200191906001019062000080565b5b509050620000ea9190620000ee565b5090565b6200013191905b808211156200012d57600081816101000a81549073ffffffffffffffffffffffffffffffffffffffff021916905550600101620000f5565b5090565b90565b6000815190506200014581620002de565b92915050565b600082601f8301126200015d57600080fd5b8151620001746200016e8262000277565b62000249565b915081818352602084019350602081019050838560208402820111156200019a57600080fd5b60005b83811015620001ce5781620001b3888262000134565b8452602084019350602083019250506001810190506200019d565b5050505092915050565b600081519050620001e981620002f8565b92915050565b600080604083850312156200020357600080fd5b600083015167ffffffffffffffff8111156200021e57600080fd5b6200022c858286016200014b565b92505060206200023f85828601620001d8565b9150509250929050565b6000604051905081810181811067ffffffffffffffff821117156200026d57600080fd5b8060405250919050565b600067ffffffffffffffff8211156200028f57600080fd5b602082029050602081019050919050565b6000620002ad82620002b4565b9050919050565b600073ffffffffffffffffffffffffffffffffffffffff82169050919050565b6000819050919050565b620002e981620002a0565b8114620002f557600080fd5b50565b6200030381620002d4565b81146200030f57600080fd5b50565b61104280620003226000396000f3fe60806040526004361061007f5760003560e01c80639ace38c21161004e5780639ace38c214610135578063cacca4a014610176578063d3650fb81461019f578063ffabc673146101dc57610086565b80631703a0181461008b5780632f65142c146100b65780634c12fa47146100e15780636cb3e8ef1461010a57610086565b3661008657005b600080fd5b34801561009757600080fd5b506100a0610219565b6040516100ad9190610e7c565b60405180910390f35b3480156100c257600080fd5b506100cb61021f565b6040516100d89190610ddf565b60405180910390f35b3480156100ed57600080fd5b5061010860048036036101039190810190610a8e565b61030d565b005b34801561011657600080fd5b5061011f6104e7565b60405161012c9190610dbd565b60405180910390f35b34801561014157600080fd5b5061015c60048036036101579190810190610a65565b610575565b60405161016d959493929190610e97565b60405180910390f35b34801561018257600080fd5b5061019d60048036036101989190810190610a65565b6105e5565b005b3480156101ab57600080fd5b506101c660048036036101c19190810190610a65565b61097f565b6040516101d39190610da2565b60405180910390f35b3480156101e857600080fd5b5061020360048036036101fe9190810190610a29565b6109bb565b6040516102109190610e01565b60405180910390f35b60025481565b60606000805480602002602001604051908101604052809291908181526020016000905b8282101561030457838290600052602060002090600502016040518060a001604052908160008201548152602001600182015481526020016002820160009054906101000a900473ffffffffffffffffffffffffffffffffffffffff1673ffffffffffffffffffffffffffffffffffffffff1673ffffffffffffffffffffffffffffffffffffffff168152602001600382015481526020016004820160009054906101000a900460ff16151515158152505081526020019060010190610243565b50505050905090565b600080905060008090505b6001805490508110156103a2573373ffffffffffffffffffffffffffffffffffffffff166001828154811061034957fe5b9060005260206000200160009054906101000a900473ffffffffffffffffffffffffffffffffffffffff1673ffffffffffffffffffffffffffffffffffffffff16141561039557600191505b8080600101915050610318565b5060011515811515146103ea576040517f08c379a00000000000000000000000000000000000000000000000000000000081526004016103e190610e3c565b60405180910390fd5b60006040518060a0016040528060008054905081526020018581526020018473ffffffffffffffffffffffffffffffffffffffff16815260200160008152602001600015158152509080600181540180825580915050600190039060005260206000209060050201600090919091909150600082015181600001556020820151816001015560408201518160020160006101000a81548173ffffffffffffffffffffffffffffffffffffffff021916908373ffffffffffffffffffffffffffffffffffffffff1602179055506060820151816003015560808201518160040160006101000a81548160ff0219169083151502179055505050505050565b6060600180548060200260200160405190810160405280929190818152602001828054801561056b57602002820191906000526020600020905b8160009054906101000a900473ffffffffffffffffffffffffffffffffffffffff1673ffffffffffffffffffffffffffffffffffffffff1681526020019060010190808311610521575b5050505050905090565b6000818154811061058257fe5b90600052602060002090600502016000915090508060000154908060010154908060020160009054906101000a900473ffffffffffffffffffffffffffffffffffffffff16908060030154908060040160009054906101000a900460ff16905085565b600080905060008090505b60018054905081101561067a573373ffffffffffffffffffffffffffffffffffffffff166001828154811061062157fe5b9060005260206000200160009054906101000a900473ffffffffffffffffffffffffffffffffffffffff1673ffffffffffffffffffffffffffffffffffffffff16141561066d57600191505b80806001019150506105f0565b5060011515811515146106c2576040517f08c379a00000000000000000000000000000000000000000000000000000000081526004016106b990610e3c565b60405180910390fd5b60001515600083815481106106d357fe5b906000526020600020906005020160040160009054906101000a900460ff16151514610734576040517f08c379a000000000000000000000000000000000000000000000000000000000815260040161072b90610e1c565b60405180910390fd5b60001515600360003373ffffffffffffffffffffffffffffffffffffffff1673ffffffffffffffffffffffffffffffffffffffff168152602001908152602001600020600084815260200190815260200160002060009054906101000a900460ff161515146107d8576040517f08c379a00000000000000000000000000000000000000000000000000000000081526004016107cf90610e5c565b60405180910390fd5b6001600360003373ffffffffffffffffffffffffffffffffffffffff1673ffffffffffffffffffffffffffffffffffffffff168152602001908152602001600020600084815260200190815260200160002060006101000a81548160ff0219169083151502179055506000828154811061084e57fe5b9060005260206000209060050201600301600081548092919060010191905055506002546000838154811061087f57fe5b9060005260206000209060050201600301541061097b576001600083815481106108a557fe5b906000526020600020906005020160040160006101000a81548160ff02191690831515021790555060008083815481106108db57fe5b906000526020600020906005020160020160009054906101000a900473ffffffffffffffffffffffffffffffffffffffff169050600080848154811061091d57fe5b90600052602060002090600502016001015490508173ffffffffffffffffffffffffffffffffffffffff166108fc829081150290604051600060405180830381858888f19350505050158015610977573d6000803e3d6000fd5b5050505b5050565b6001818154811061098c57fe5b906000526020600020016000915054906101000a900473ffffffffffffffffffffffffffffffffffffffff1681565b60036020528160005260406000206020528060005260406000206000915091509054906101000a900460ff1681565b6000813590506109f981610fc7565b92915050565b600081359050610a0e81610fde565b92915050565b600081359050610a2381610ff5565b92915050565b60008060408385031215610a3c57600080fd5b6000610a4a858286016109ea565b9250506020610a5b85828601610a14565b9150509250929050565b600060208284031215610a7757600080fd5b6000610a8584828501610a14565b91505092915050565b60008060408385031215610aa157600080fd5b6000610aaf85828601610a14565b9250506020610ac0858286016109ff565b9150509250929050565b6000610ad68383610b18565b60208301905092915050565b6000610aee8383610d1c565b60a08301905092915050565b610b0381610f7f565b82525050565b610b1281610f7f565b82525050565b610b2181610f6d565b82525050565b610b3081610f6d565b82525050565b6000610b4182610f0a565b610b4b8185610f3a565b9350610b5683610eea565b8060005b83811015610b87578151610b6e8882610aca565b9750610b7983610f20565b925050600181019050610b5a565b5085935050505092915050565b6000610b9f82610f15565b610ba98185610f4b565b9350610bb483610efa565b8060005b83811015610be5578151610bcc8882610ae2565b9750610bd783610f2d565b925050600181019050610bb8565b5085935050505092915050565b610bfb81610f91565b82525050565b610c0a81610f91565b82525050565b6000610c1d602283610f5c565b91507f5472616e73616374696f6e2068617320616c7265616479206265656e2073656e60008301527f742e0000000000000000000000000000000000000000000000000000000000006020830152604082019050919050565b6000610c83601883610f5c565b91507f4f6e6c7920417070726f7665727320616c6c6f776564212100000000000000006000830152602082019050919050565b6000610cc3602583610f5c565b91507f5472616e73616374696f6e2063616e6e6f7420626520617070726f766564207460008301527f776963652e0000000000000000000000000000000000000000000000000000006020830152604082019050919050565b60a082016000820151610d326000850182610d84565b506020820151610d456020850182610d84565b506040820151610d586040850182610afa565b506060820151610d6b6060850182610d84565b506080820151610d7e6080850182610bf2565b50505050565b610d8d81610fbd565b82525050565b610d9c81610fbd565b82525050565b6000602082019050610db76000830184610b27565b92915050565b60006020820190508181036000830152610dd78184610b36565b905092915050565b60006020820190508181036000830152610df98184610b94565b905092915050565b6000602082019050610e166000830184610c01565b92915050565b60006020820190508181036000830152610e3581610c10565b9050919050565b60006020820190508181036000830152610e5581610c76565b9050919050565b60006020820190508181036000830152610e7581610cb6565b9050919050565b6000602082019050610e916000830184610d93565b92915050565b600060a082019050610eac6000830188610d93565b610eb96020830187610d93565b610ec66040830186610b09565b610ed36060830185610d93565b610ee06080830184610c01565b9695505050505050565b6000819050602082019050919050565b6000819050602082019050919050565b600081519050919050565b600081519050919050565b6000602082019050919050565b6000602082019050919050565b600082825260208201905092915050565b600082825260208201905092915050565b600082825260208201905092915050565b6000610f7882610f9d565b9050919050565b6000610f8a82610f9d565b9050919050565b60008115159050919050565b600073ffffffffffffffffffffffffffffffffffffffff82169050919050565b6000819050919050565b610fd081610f6d565b8114610fdb57600080fd5b50565b610fe781610f7f565b8114610ff257600080fd5b50565b610ffe81610fbd565b811461100957600080fd5b5056fea2646970667358221220d348526b94dec7a5d576f7715dc3c59cf466be11e9c2849aa6af082265aa334d64736f6c63430006000033",
  "source": "pragma solidity 0.6.0;\npragma experimental ABIEncoderV2;\n\ncontract Wallet {\n    struct Transaction {\n        uint256 id;\n        uint256 amount;\n        address payable to;\n        uint256 approvals;\n        bool sent;\n    }\n    Transaction[] public transactions;\n\n    address[] public approvers;\n    uint256 public quorum;\n    mapping(address => mapping(uint256 => bool)) public approvals;\n\n    constructor(address[] memory _approvers, uint256 _quorum) public {\n        approvers = _approvers;\n        quorum = _quorum;\n    }\n\n    function getApprovers() external view returns (address[] memory) {\n        return approvers;\n    }\n\n    function getTransfers() public view returns (Transaction[] memory) {\n        return transactions;\n    }\n\n    function createTransfer(uint256 amount, address payable to)\n        external\n        onlyApprover\n    {\n        transactions.push(\n            Transaction(transactions.length, amount, to, 0, false)\n        );\n    }\n\n    function approveTransfer(uint256 id) external onlyApprover {\n        require(\n            transactions[id].sent == false,\n            \"Transaction has already been sent.\"\n        );\n        require(\n            approvals[msg.sender][id] == false,\n            \"Transaction cannot be approved twice.\"\n        );\n        approvals[msg.sender][id] = true;\n        transactions[id].approvals++;\n        if (transactions[id].approvals >= quorum) {\n            transactions[id].sent = true;\n            address payable to = transactions[id].to;\n            uint256 amount = transactions[id].amount;\n            to.transfer(amount);\n        }\n    }\n\n    receive() external payable {}\n\n    modifier onlyApprover() {\n        bool allowed = false;\n        for (uint256 i = 0; i < approvers.length; i++) {\n            if (approvers[i] == msg.sender) {\n                allowed = true;\n            }\n        }\n        require(allowed == true, \"Only Approvers allowed!!\");\n        _;\n    }\n}\n",
  "sourcePath": "/Users/gopal/blockchain/MultiSig Wallet/contracts/Wallet.sol",
  "compiler": {
    "name": "solc",
    "version": "0.6.0+commit.26b70077.Emscripten.clang"
  },
  "schemaVersion": "3.4.3",
  "updatedAt": "2021-12-23T16:42:57.018Z",
  "networkType": "ethereum",
  "devdoc": {
    "methods": {}
  },
  "userdoc": {
    "methods": {}
  }
}